{
  "_format": "hh-sol-artifact-1",
  "contractName": "milestoneSafe",
  "sourceName": "contracts/milestoneSafe.sol",
  "abi": [
    {
      "anonymous": false,
      "inputs": [
        {
          "indexed": false,
          "internalType": "uint256",
          "name": "safeId",
          "type": "uint256"
        },
        {
          "indexed": false,
          "internalType": "address",
          "name": "owner",
          "type": "address"
        },
        {
          "indexed": false,
          "internalType": "address",
          "name": "recipient",
          "type": "address"
        },
        {
          "indexed": false,
          "internalType": "uint256[]",
          "name": "milestonesAmounts",
          "type": "uint256[]"
        },
        {
          "indexed": false,
          "internalType": "uint32",
          "name": "minimumApprovals",
          "type": "uint32"
        },
        {
          "indexed": false,
          "internalType": "address[]",
          "name": "approvers",
          "type": "address[]"
        }
      ],
      "name": "SafeCreated",
      "type": "event"
    },
    {
      "inputs": [
        {
          "internalType": "uint256",
          "name": "",
          "type": "uint256"
        }
      ],
      "name": "allSafes",
      "outputs": [
        {
          "internalType": "uint256",
          "name": "safeId",
          "type": "uint256"
        },
        {
          "internalType": "address",
          "name": "owner",
          "type": "address"
        },
        {
          "internalType": "address",
          "name": "recipient",
          "type": "address"
        },
        {
          "internalType": "uint32",
          "name": "minimumApprovals",
          "type": "uint32"
        },
        {
          "internalType": "uint32",
          "name": "approvalsCount",
          "type": "uint32"
        },
        {
          "internalType": "bool",
          "name": "status",
          "type": "bool"
        },
        {
          "internalType": "address",
          "name": "tokenAddress",
          "type": "address"
        },
        {
          "internalType": "uint256",
          "name": "currentMilestone",
          "type": "uint256"
        }
      ],
      "stateMutability": "view",
      "type": "function"
    },
    {
      "inputs": [
        {
          "internalType": "uint256",
          "name": "safeId",
          "type": "uint256"
        }
      ],
      "name": "approve",
      "outputs": [
        {
          "internalType": "bool",
          "name": "",
          "type": "bool"
        }
      ],
      "stateMutability": "nonpayable",
      "type": "function"
    },
    {
      "inputs": [
        {
          "internalType": "address",
          "name": "recipient",
          "type": "address"
        },
        {
          "internalType": "uint256[]",
          "name": "milestonesAmounts",
          "type": "uint256[]"
        },
        {
          "internalType": "uint32",
          "name": "minimumApprovals",
          "type": "uint32"
        },
        {
          "internalType": "address[]",
          "name": "approvers",
          "type": "address[]"
        }
      ],
      "name": "createSafeForNative",
      "outputs": [
        {
          "internalType": "uint256",
          "name": "",
          "type": "uint256"
        }
      ],
      "stateMutability": "payable",
      "type": "function"
    },
    {
      "inputs": [
        {
          "internalType": "address",
          "name": "recipient",
          "type": "address"
        },
        {
          "internalType": "uint256[]",
          "name": "milestonesAmounts",
          "type": "uint256[]"
        },
        {
          "internalType": "uint32",
          "name": "minimumApprovals",
          "type": "uint32"
        },
        {
          "internalType": "address[]",
          "name": "approvers",
          "type": "address[]"
        },
        {
          "internalType": "address",
          "name": "tokenAddress",
          "type": "address"
        }
      ],
      "name": "createSafeForToken",
      "outputs": [
        {
          "internalType": "uint256",
          "name": "",
          "type": "uint256"
        }
      ],
      "stateMutability": "payable",
      "type": "function"
    },
    {
      "inputs": [
        {
          "internalType": "uint256",
          "name": "safeId",
          "type": "uint256"
        }
      ],
      "name": "currentMilestone",
      "outputs": [
        {
          "internalType": "uint256",
          "name": "",
          "type": "uint256"
        }
      ],
      "stateMutability": "view",
      "type": "function"
    },
    {
      "inputs": [
        {
          "internalType": "uint256",
          "name": "safeId",
          "type": "uint256"
        }
      ],
      "name": "getApprovers",
      "outputs": [
        {
          "internalType": "address[]",
          "name": "_approvers",
          "type": "address[]"
        }
      ],
      "stateMutability": "view",
      "type": "function"
    },
    {
      "inputs": [
        {
          "internalType": "uint256",
          "name": "",
          "type": "uint256"
        },
        {
          "internalType": "uint256",
          "name": "",
          "type": "uint256"
        },
        {
          "internalType": "address",
          "name": "",
          "type": "address"
        }
      ],
      "name": "hasApproved",
      "outputs": [
        {
          "internalType": "bool",
          "name": "",
          "type": "bool"
        }
      ],
      "stateMutability": "view",
      "type": "function"
    },
    {
      "inputs": [
        {
          "internalType": "uint256",
          "name": "safeId",
          "type": "uint256"
        }
      ],
      "name": "isSafeActive",
      "outputs": [],
      "stateMutability": "view",
      "type": "function"
    },
    {
      "inputs": [
        {
          "internalType": "uint256",
          "name": "safeId",
          "type": "uint256"
        }
      ],
      "name": "terminateSafe",
      "outputs": [
        {
          "internalType": "bool",
          "name": "",
          "type": "bool"
        }
      ],
      "stateMutability": "nonpayable",
      "type": "function"
    },
    {
      "inputs": [
        {
          "internalType": "uint256",
          "name": "safeId",
          "type": "uint256"
        }
      ],
      "name": "totalAmountLocked",
      "outputs": [
        {
          "internalType": "uint256",
          "name": "",
          "type": "uint256"
        }
      ],
      "stateMutability": "view",
      "type": "function"
    },
    {
      "inputs": [],
      "name": "totalSafes",
      "outputs": [
        {
          "internalType": "uint256",
          "name": "",
          "type": "uint256"
        }
      ],
      "stateMutability": "view",
      "type": "function"
    }
  ],
  "bytecode": "0x608060405234801561001057600080fd5b50613154806100206000396000f3fe60806040526004361061009c5760003560e01c80633c5ff66a116100645780633c5ff66a1461019f5780636793c8e1146101e35780639789cd1614610220578063a80edf1d14610250578063b759f9541461028d578063c65df794146102ca5761009c565b806306fe9c36146100a157806308dae23c146100ca5780630f8cf47b146101075780631867750f146101445780632f82318614610174575b600080fd5b3480156100ad57600080fd5b506100c860048036038101906100c3919061204c565b610307565b005b3480156100d657600080fd5b506100f160048036038101906100ec91906120d7565b610383565b6040516100fe9190612145565b60405180910390f35b34801561011357600080fd5b5061012e6004803603810190610129919061204c565b6103bf565b60405161013b919061216f565b60405180910390f35b61015e600480360381019061015991906123e2565b610444565b60405161016b919061216f565b60405180910390f35b34801561018057600080fd5b50610189610a0f565b604051610196919061216f565b60405180910390f35b3480156101ab57600080fd5b506101c660048036038101906101c1919061204c565b610a15565b6040516101da9897969594939291906124b3565b60405180910390f35b3480156101ef57600080fd5b5061020a6004803603810190610205919061204c565b610aea565b604051610217919061216f565b60405180910390f35b61023a60048036038101906102359190612531565b610b19565b604051610247919061216f565b60405180910390f35b34801561025c57600080fd5b506102776004803603810190610272919061204c565b611093565b6040516102849190612145565b60405180910390f35b34801561029957600080fd5b506102b460048036038101906102af919061204c565b611404565b6040516102c19190612145565b60405180910390f35b3480156102d657600080fd5b506102f160048036038101906102ec919061204c565b611945565b6040516102fe919061268e565b60405180910390f35b610310816119ef565b6000600160008381526020019081526020016000209050600115158160060160009054906101000a900460ff1615151461037f576040517f08c379a00000000000000000000000000000000000000000000000000000000081526004016103769061270d565b60405180910390fd5b5050565b6002602052826000526040600020602052816000526040600020602052806000526040600020600092509250509054906101000a900460ff1681565b60006103ca826119ef565b600060016000848152602001908152602001600020905061043c8160030180548060200260200160405190810160405280929190818152602001828054801561043257602002820191906000526020600020905b81548152602001906001019080831161041e575b5050505050611a37565b915050919050565b60008363ffffffff1683511015610490576040517f08c379a000000000000000000000000000000000000000000000000000000000815260040161048790612779565b60405180910390fd5b600073ffffffffffffffffffffffffffffffffffffffff168673ffffffffffffffffffffffffffffffffffffffff16036104ff576040517f08c379a00000000000000000000000000000000000000000000000000000000081526004016104f6906127e5565b60405180910390fd5b61050886611a89565b610547576040517f08c379a000000000000000000000000000000000000000000000000000000000815260040161053e90612851565b60405180910390fd5b61055083611b02565b61058f576040517f08c379a000000000000000000000000000000000000000000000000000000000815260040161058690612851565b60405180910390fd5b61059883611bb3565b6105d7576040517f08c379a00000000000000000000000000000000000000000000000000000000081526004016105ce906128bd565b60405180910390fd5b60006105e286611a37565b90506105ee8382611c77565b61062d576040517f08c379a000000000000000000000000000000000000000000000000000000000815260040161062490612929565b60405180910390fd5b61063983333084611d46565b610678576040517f08c379a000000000000000000000000000000000000000000000000000000000815260040161066f90612995565b60405180910390fd5b60008081548092919061068a906129e4565b9190505550600060405180610140016040528060005481526020013373ffffffffffffffffffffffffffffffffffffffff1681526020018973ffffffffffffffffffffffffffffffffffffffff1681526020018881526020018763ffffffff168152602001600063ffffffff1681526020018681526020016001151581526020018573ffffffffffffffffffffffffffffffffffffffff168152602001600081525090508060016000805481526020019081526020016000206000820151816000015560208201518160010160006101000a81548173ffffffffffffffffffffffffffffffffffffffff021916908373ffffffffffffffffffffffffffffffffffffffff16021790555060408201518160020160006101000a81548173ffffffffffffffffffffffffffffffffffffffff021916908373ffffffffffffffffffffffffffffffffffffffff16021790555060608201518160030190805190602001906107f7929190611f0e565b5060808201518160040160006101000a81548163ffffffff021916908363ffffffff16021790555060a08201518160040160046101000a81548163ffffffff021916908363ffffffff16021790555060c0820151816005019080519060200190610862929190611f5b565b5060e08201518160060160006101000a81548160ff0219169083151502179055506101008201518160060160016101000a81548173ffffffffffffffffffffffffffffffffffffffff021916908373ffffffffffffffffffffffffffffffffffffffff160217905550610120820151816007015590505060005b87518110156109bb5760005b86518110156109ad576000600260008054815260200190815260200160002060008b858151811061091c5761091b612a2c565b5b60200260200101518152602001908152602001600020600089848151811061094757610946612a2c565b5b602002602001015173ffffffffffffffffffffffffffffffffffffffff1673ffffffffffffffffffffffffffffffffffffffff16815260200190815260200160002060006101000a81548160ff02191690831515021790555080806001019150506108e8565b5080806001019150506108dc565b507f4d1e12a4fea2d4fc5649412d4434de87096a836ab3a8f4e999259776130de543600054338a8a8a8a6040516109f796959493929190612b19565b60405180910390a16000549250505095945050505050565b60005481565b60016020528060005260406000206000915090508060000154908060010160009054906101000a900473ffffffffffffffffffffffffffffffffffffffff16908060020160009054906101000a900473ffffffffffffffffffffffffffffffffffffffff16908060040160009054906101000a900463ffffffff16908060040160049054906101000a900463ffffffff16908060060160009054906101000a900460ff16908060060160019054906101000a900473ffffffffffffffffffffffffffffffffffffffff16908060070154905088565b6000610af5826119ef565b60006001600084815260200190815260200160002090508060070154915050919050565b6000610b2485611a89565b610b63576040517f08c379a0000000000000000000000000000000000000000000000000000000008152600401610b5a90612851565b60405180910390fd5b610b6c82611b02565b610bab576040517f08c379a0000000000000000000000000000000000000000000000000000000008152600401610ba290612851565b60405180910390fd5b610bb482611bb3565b610bf3576040517f08c379a0000000000000000000000000000000000000000000000000000000008152600401610bea906128bd565b60405180910390fd5b6000610bfe85611a37565b905080341015610c43576040517f08c379a0000000000000000000000000000000000000000000000000000000008152600401610c3a90612bd4565b60405180910390fd5b8363ffffffff1683511015610c8d576040517f08c379a0000000000000000000000000000000000000000000000000000000008152600401610c8490612779565b60405180910390fd5b600073ffffffffffffffffffffffffffffffffffffffff168673ffffffffffffffffffffffffffffffffffffffff1603610cfc576040517f08c379a0000000000000000000000000000000000000000000000000000000008152600401610cf3906127e5565b60405180910390fd5b600080815480929190610d0e906129e4565b9190505550600060405180610140016040528060005481526020013373ffffffffffffffffffffffffffffffffffffffff1681526020018873ffffffffffffffffffffffffffffffffffffffff1681526020018781526020018663ffffffff168152602001600063ffffffff168152602001858152602001600115158152602001600073ffffffffffffffffffffffffffffffffffffffff168152602001600081525090508060016000805481526020019081526020016000206000820151816000015560208201518160010160006101000a81548173ffffffffffffffffffffffffffffffffffffffff021916908373ffffffffffffffffffffffffffffffffffffffff16021790555060408201518160020160006101000a81548173ffffffffffffffffffffffffffffffffffffffff021916908373ffffffffffffffffffffffffffffffffffffffff1602179055506060820151816003019080519060200190610e7c929190611f0e565b5060808201518160040160006101000a81548163ffffffff021916908363ffffffff16021790555060a08201518160040160046101000a81548163ffffffff021916908363ffffffff16021790555060c0820151816005019080519060200190610ee7929190611f5b565b5060e08201518160060160006101000a81548160ff0219169083151502179055506101008201518160060160016101000a81548173ffffffffffffffffffffffffffffffffffffffff021916908373ffffffffffffffffffffffffffffffffffffffff160217905550610120820151816007015590505060005b86518110156110405760005b8551811015611032576000600260008054815260200190815260200160002060008a8581518110610fa157610fa0612a2c565b5b602002602001015181526020019081526020016000206000888481518110610fcc57610fcb612a2c565b5b602002602001015173ffffffffffffffffffffffffffffffffffffffff1673ffffffffffffffffffffffffffffffffffffffff16815260200190815260200160002060006101000a81548160ff0219169083151502179055508080600101915050610f6d565b508080600101915050610f61565b507f4d1e12a4fea2d4fc5649412d4434de87096a836ab3a8f4e999259776130de543600054338989898960405161107c96959493929190612b19565b60405180910390a160005492505050949350505050565b6000816001600082815260200190815260200160002060010160009054906101000a900473ffffffffffffffffffffffffffffffffffffffff1673ffffffffffffffffffffffffffffffffffffffff163373ffffffffffffffffffffffffffffffffffffffff161461113a576040517f08c379a000000000000000000000000000000000000000000000000000000000815260040161113190612c40565b60405180910390fd5b611143836119ef565b61114c83610307565b6000600160008581526020019081526020016000209050600073ffffffffffffffffffffffffffffffffffffffff168160060160019054906101000a900473ffffffffffffffffffffffffffffffffffffffff1673ffffffffffffffffffffffffffffffffffffffff16036112c75760003373ffffffffffffffffffffffffffffffffffffffff1661122f8360030180548060200260200160405190810160405280929190818152602001828054801561122557602002820191906000526020600020905b815481526020019060010190808311611211575b5050505050611a37565b60405161123b90612c91565b60006040518083038185875af1925050503d8060008114611278576040519150601f19603f3d011682016040523d82523d6000602084013e61127d565b606091505b50509050806112c1576040517f08c379a00000000000000000000000000000000000000000000000000000000081526004016112b890612cf2565b60405180910390fd5b50611391565b6113518160060160019054906101000a900473ffffffffffffffffffffffffffffffffffffffff16303361134c8560030180548060200260200160405190810160405280929190818152602001828054801561134257602002820191906000526020600020905b81548152602001906001019080831161132e575b5050505050611a37565b611d46565b611390576040517f08c379a000000000000000000000000000000000000000000000000000000000815260040161138790612995565b60405180910390fd5b5b60005b816003018054905081116113db5760008260030182815481106113ba576113b9612a2c565b5b906000526020600020018190555080806113d3906129e4565b915050611394565b5060008160060160006101000a81548160ff021916908315150217905550600192505050919050565b600061140f826119ef565b60006001600084815260200190815260200160002090506000805b82600501805490508110156114c2573373ffffffffffffffffffffffffffffffffffffffff1683600501828154811061146657611465612a2c565b5b9060005260206000200160009054906101000a900473ffffffffffffffffffffffffffffffffffffffff1673ffffffffffffffffffffffffffffffffffffffff16036114b557600191506114c2565b808060010191505061142a565b5080611503576040517f08c379a00000000000000000000000000000000000000000000000000000000081526004016114fa90612d5e565b60405180910390fd5b61150c84610307565b6002600085815260200190815260200160002060008360070154815260200190815260200160002060003373ffffffffffffffffffffffffffffffffffffffff1673ffffffffffffffffffffffffffffffffffffffff16815260200190815260200160002060009054906101000a900460ff16156115bf576040517f08c379a00000000000000000000000000000000000000000000000000000000081526004016115b690612dca565b60405180910390fd5b60016002600086815260200190815260200160002060008460070154815260200190815260200160002060003373ffffffffffffffffffffffffffffffffffffffff1673ffffffffffffffffffffffffffffffffffffffff16815260200190815260200160002060006101000a81548160ff02191690831515021790555081600401600481819054906101000a900463ffffffff168092919061166190612dea565b91906101000a81548163ffffffff021916908363ffffffff160217905550508160040160009054906101000a900463ffffffff1663ffffffff168260040160049054906101000a900463ffffffff1663ffffffff161061193a57600073ffffffffffffffffffffffffffffffffffffffff168260060160019054906101000a900473ffffffffffffffffffffffffffffffffffffffff1673ffffffffffffffffffffffffffffffffffffffff160361180d5760008260020160009054906101000a900473ffffffffffffffffffffffffffffffffffffffff1673ffffffffffffffffffffffffffffffffffffffff168360030184600701548154811061176a57611769612a2c565b5b906000526020600020015460405161178190612c91565b60006040518083038185875af1925050503d80600081146117be576040519150601f19603f3d011682016040523d82523d6000602084013e6117c3565b606091505b5050905080611807576040517f08c379a00000000000000000000000000000000000000000000000000000000081526004016117fe90612cf2565b60405180910390fd5b506118c5565b6118858260060160019054906101000a900473ffffffffffffffffffffffffffffffffffffffff16308460020160009054906101000a900473ffffffffffffffffffffffffffffffffffffffff168560030186600701548154811061187557611874612a2c565b5b9060005260206000200154611d46565b6118c4576040517f08c379a00000000000000000000000000000000000000000000000000000000081526004016118bb90612995565b60405180910390fd5b5b6000826003018360070154815481106118e1576118e0612a2c565b5b9060005260206000200181905550816007016000815480929190611904906129e4565b919050555081600301805490508260070154106119395760008260060160006101000a81548160ff0219169083151502179055505b5b600192505050919050565b60606000600160008481526020019081526020016000209050806005018054806020026020016040519081016040528092919081815260200182805480156119e257602002820191906000526020600020905b8160009054906101000a900473ffffffffffffffffffffffffffffffffffffffff1673ffffffffffffffffffffffffffffffffffffffff1681526020019060010190808311611998575b5050505050915050919050565b600054811115611a34576040517f08c379a0000000000000000000000000000000000000000000000000000000008152600401611a2b90612e62565b60405180910390fd5b50565b6000806000905060005b8351811015611a7f57838181518110611a5d57611a5c612a2c565b5b602002602001015182611a709190612e82565b91508080600101915050611a41565b5080915050919050565b60008073ffffffffffffffffffffffffffffffffffffffff168273ffffffffffffffffffffffffffffffffffffffff1603611af9576040517f08c379a0000000000000000000000000000000000000000000000000000000008152600401611af090612f02565b60405180910390fd5b60019050919050565b600080600090505b8251811015611ba957600073ffffffffffffffffffffffffffffffffffffffff16838281518110611b3e57611b3d612a2c565b5b602002602001015173ffffffffffffffffffffffffffffffffffffffff1603611b9c576040517f08c379a0000000000000000000000000000000000000000000000000000000008152600401611b9390612f02565b60405180910390fd5b8080600101915050611b0a565b5060019050919050565b600080600090505b8251811015611c6c576000600182611bd39190612e82565b90505b8351811015611c5e57838181518110611bf257611bf1612a2c565b5b602002602001015173ffffffffffffffffffffffffffffffffffffffff16848381518110611c2357611c22612a2c565b5b602002602001015173ffffffffffffffffffffffffffffffffffffffff1603611c5157600092505050611c72565b8080600101915050611bd6565b508080600101915050611bbb565b50600190505b919050565b600080839050828173ffffffffffffffffffffffffffffffffffffffff1663dd62ed3e33306040518363ffffffff1660e01b8152600401611cb9929190612f22565b602060405180830381865afa158015611cd6573d6000803e3d6000fd5b505050506040513d601f19601f82011682018060405250810190611cfa9190612f60565b1015611d3b576040517f08c379a0000000000000000000000000000000000000000000000000000000008152600401611d3290612fd9565b60405180910390fd5b600191505092915050565b6000808590503073ffffffffffffffffffffffffffffffffffffffff168573ffffffffffffffffffffffffffffffffffffffff1603611e41578073ffffffffffffffffffffffffffffffffffffffff1663a9059cbb85856040518363ffffffff1660e01b8152600401611dba929190612ff9565b6020604051808303816000875af1158015611dd9573d6000803e3d6000fd5b505050506040513d601f19601f82011682018060405250810190611dfd919061304e565b611e3c576040517f08c379a0000000000000000000000000000000000000000000000000000000008152600401611e33906130c7565b60405180910390fd5b611f01565b8073ffffffffffffffffffffffffffffffffffffffff166323b872dd8686866040518463ffffffff1660e01b8152600401611e7e939291906130e7565b6020604051808303816000875af1158015611e9d573d6000803e3d6000fd5b505050506040513d601f19601f82011682018060405250810190611ec1919061304e565b611f00576040517f08c379a0000000000000000000000000000000000000000000000000000000008152600401611ef7906130c7565b60405180910390fd5b5b6001915050949350505050565b828054828255906000526020600020908101928215611f4a579160200282015b82811115611f49578251825591602001919060010190611f2e565b5b509050611f579190611fe5565b5090565b828054828255906000526020600020908101928215611fd4579160200282015b82811115611fd35782518260006101000a81548173ffffffffffffffffffffffffffffffffffffffff021916908373ffffffffffffffffffffffffffffffffffffffff16021790555091602001919060010190611f7b565b5b509050611fe19190611fe5565b5090565b5b80821115611ffe576000816000905550600101611fe6565b5090565b6000604051905090565b600080fd5b600080fd5b6000819050919050565b61202981612016565b811461203457600080fd5b50565b60008135905061204681612020565b92915050565b6000602082840312156120625761206161200c565b5b600061207084828501612037565b91505092915050565b600073ffffffffffffffffffffffffffffffffffffffff82169050919050565b60006120a482612079565b9050919050565b6120b481612099565b81146120bf57600080fd5b50565b6000813590506120d1816120ab565b92915050565b6000806000606084860312156120f0576120ef61200c565b5b60006120fe86828701612037565b935050602061210f86828701612037565b9250506040612120868287016120c2565b9150509250925092565b60008115159050919050565b61213f8161212a565b82525050565b600060208201905061215a6000830184612136565b92915050565b61216981612016565b82525050565b60006020820190506121846000830184612160565b92915050565b600080fd5b6000601f19601f8301169050919050565b7f4e487b7100000000000000000000000000000000000000000000000000000000600052604160045260246000fd5b6121d88261218f565b810181811067ffffffffffffffff821117156121f7576121f66121a0565b5b80604052505050565b600061220a612002565b905061221682826121cf565b919050565b600067ffffffffffffffff821115612236576122356121a0565b5b602082029050602081019050919050565b600080fd5b600061225f61225a8461221b565b612200565b9050808382526020820190506020840283018581111561228257612281612247565b5b835b818110156122ab57806122978882612037565b845260208401935050602081019050612284565b5050509392505050565b600082601f8301126122ca576122c961218a565b5b81356122da84826020860161224c565b91505092915050565b600063ffffffff82169050919050565b6122fc816122e3565b811461230757600080fd5b50565b600081359050612319816122f3565b92915050565b600067ffffffffffffffff82111561233a576123396121a0565b5b602082029050602081019050919050565b600061235e6123598461231f565b612200565b9050808382526020820190506020840283018581111561238157612380612247565b5b835b818110156123aa578061239688826120c2565b845260208401935050602081019050612383565b5050509392505050565b600082601f8301126123c9576123c861218a565b5b81356123d984826020860161234b565b91505092915050565b600080600080600060a086880312156123fe576123fd61200c565b5b600061240c888289016120c2565b955050602086013567ffffffffffffffff81111561242d5761242c612011565b5b612439888289016122b5565b945050604061244a8882890161230a565b935050606086013567ffffffffffffffff81111561246b5761246a612011565b5b612477888289016123b4565b9250506080612488888289016120c2565b9150509295509295909350565b61249e81612099565b82525050565b6124ad816122e3565b82525050565b6000610100820190506124c9600083018b612160565b6124d6602083018a612495565b6124e36040830189612495565b6124f060608301886124a4565b6124fd60808301876124a4565b61250a60a0830186612136565b61251760c0830185612495565b61252460e0830184612160565b9998505050505050505050565b6000806000806080858703121561254b5761254a61200c565b5b6000612559878288016120c2565b945050602085013567ffffffffffffffff81111561257a57612579612011565b5b612586878288016122b5565b93505060406125978782880161230a565b925050606085013567ffffffffffffffff8111156125b8576125b7612011565b5b6125c4878288016123b4565b91505092959194509250565b600081519050919050565b600082825260208201905092915050565b6000819050602082019050919050565b61260581612099565b82525050565b600061261783836125fc565b60208301905092915050565b6000602082019050919050565b600061263b826125d0565b61264581856125db565b9350612650836125ec565b8060005b83811015612681578151612668888261260b565b975061267383612623565b925050600181019050612654565b5085935050505092915050565b600060208201905081810360008301526126a88184612630565b905092915050565b600082825260208201905092915050565b7f53616665206e6f74206163746976650000000000000000000000000000000000600082015250565b60006126f7600f836126b0565b9150612702826126c1565b602082019050919050565b60006020820190508181036000830152612726816126ea565b9050919050565b7f4e6f7420656e6f75676820617070726f76657273000000000000000000000000600082015250565b60006127636014836126b0565b915061276e8261272d565b602082019050919050565b6000602082019050818103600083015261279281612756565b9050919050565b7f526563697069656e7420616464726573732063616e6e6f74206265207a65726f600082015250565b60006127cf6020836126b0565b91506127da82612799565b602082019050919050565b600060208201905081810360008301526127fe816127c2565b9050919050565b7f4e6f7420616e2061646472657373000000000000000000000000000000000000600082015250565b600061283b600e836126b0565b915061284682612805565b602082019050919050565b6000602082019050818103600083015261286a8161282e565b9050919050565b7f417070726f76657273206e6f7420756e69717565000000000000000000000000600082015250565b60006128a76014836126b0565b91506128b282612871565b602082019050919050565b600060208201905081810360008301526128d68161289a565b9050919050565b7f4e6f20616c6c6f77616e63650000000000000000000000000000000000000000600082015250565b6000612913600c836126b0565b915061291e826128dd565b602082019050919050565b6000602082019050818103600083015261294281612906565b9050919050565b7f5472616e73666572206661696c65640000000000000000000000000000000000600082015250565b600061297f600f836126b0565b915061298a82612949565b602082019050919050565b600060208201905081810360008301526129ae81612972565b9050919050565b7f4e487b7100000000000000000000000000000000000000000000000000000000600052601160045260246000fd5b60006129ef82612016565b91507fffffffffffffffffffffffffffffffffffffffffffffffffffffffffffffffff8203612a2157612a206129b5565b5b600182019050919050565b7f4e487b7100000000000000000000000000000000000000000000000000000000600052603260045260246000fd5b600081519050919050565b600082825260208201905092915050565b6000819050602082019050919050565b612a9081612016565b82525050565b6000612aa28383612a87565b60208301905092915050565b6000602082019050919050565b6000612ac682612a5b565b612ad08185612a66565b9350612adb83612a77565b8060005b83811015612b0c578151612af38882612a96565b9750612afe83612aae565b925050600181019050612adf565b5085935050505092915050565b600060c082019050612b2e6000830189612160565b612b3b6020830188612495565b612b486040830187612495565b8181036060830152612b5a8186612abb565b9050612b6960808301856124a4565b81810360a0830152612b7b8184612630565b9050979650505050505050565b7f496e636f7272656374206465706f73697420616d6f756e740000000000000000600082015250565b6000612bbe6018836126b0565b9150612bc982612b88565b602082019050919050565b60006020820190508181036000830152612bed81612bb1565b9050919050565b7f4e6f7420746865206f776e657200000000000000000000000000000000000000600082015250565b6000612c2a600d836126b0565b9150612c3582612bf4565b602082019050919050565b60006020820190508181036000830152612c5981612c1d565b9050919050565b600081905092915050565b50565b6000612c7b600083612c60565b9150612c8682612c6b565b600082019050919050565b6000612c9c82612c6e565b9150819050919050565b7f43616c6c206661696c6564000000000000000000000000000000000000000000600082015250565b6000612cdc600b836126b0565b9150612ce782612ca6565b602082019050919050565b60006020820190508181036000830152612d0b81612ccf565b9050919050565b7f4e6f7420616e20617070726f7665720000000000000000000000000000000000600082015250565b6000612d48600f836126b0565b9150612d5382612d12565b602082019050919050565b60006020820190508181036000830152612d7781612d3b565b9050919050565b7f416c726561647920617070726f76656400000000000000000000000000000000600082015250565b6000612db46010836126b0565b9150612dbf82612d7e565b602082019050919050565b60006020820190508181036000830152612de381612da7565b9050919050565b6000612df5826122e3565b915063ffffffff8203612e0b57612e0a6129b5565b5b600182019050919050565b7f5361666520646f6573206e6f7420657869737400000000000000000000000000600082015250565b6000612e4c6013836126b0565b9150612e5782612e16565b602082019050919050565b60006020820190508181036000830152612e7b81612e3f565b9050919050565b6000612e8d82612016565b9150612e9883612016565b9250828201905080821115612eb057612eaf6129b5565b5b92915050565b7f496e76616c696420616464726573730000000000000000000000000000000000600082015250565b6000612eec600f836126b0565b9150612ef782612eb6565b602082019050919050565b60006020820190508181036000830152612f1b81612edf565b9050919050565b6000604082019050612f376000830185612495565b612f446020830184612495565b9392505050565b600081519050612f5a81612020565b92915050565b600060208284031215612f7657612f7561200c565b5b6000612f8484828501612f4b565b91505092915050565b7f496e73756666696369656e7420616c6c6f77616e636500000000000000000000600082015250565b6000612fc36016836126b0565b9150612fce82612f8d565b602082019050919050565b60006020820190508181036000830152612ff281612fb6565b9050919050565b600060408201905061300e6000830185612495565b61301b6020830184612160565b9392505050565b61302b8161212a565b811461303657600080fd5b50565b60008151905061304881613022565b92915050565b6000602082840312156130645761306361200c565b5b600061307284828501613039565b91505092915050565b7f5472616e73616374696f6e206661696c65640000000000000000000000000000600082015250565b60006130b16012836126b0565b91506130bc8261307b565b602082019050919050565b600060208201905081810360008301526130e0816130a4565b9050919050565b60006060820190506130fc6000830186612495565b6131096020830185612495565b6131166040830184612160565b94935050505056fea2646970667358221220fa176d6fc382c5ff2ff31e84d3152829500765c5c1cf34202e7b689519c4e2b564736f6c63430008160033",
  "linkReferences": {},
  "deployedLinkReferences": {}
}